{
  "_format": "hh-sol-artifact-1",
  "contractName": "InternshipCertificateNFT",
  "sourceName": "contracts/InternshipCertificateNFT.sol",
  "abi": [
    {
      "inputs": [],
      "stateMutability": "nonpayable",
      "type": "constructor"
    },
    {
      "inputs": [],
      "name": "AccessControlBadConfirmation",
      "type": "error"
    },
    {
      "inputs": [
        {
          "internalType": "address",
          "name": "account",
          "type": "address"
        },
        {
          "internalType": "bytes32",
          "name": "neededRole",
          "type": "bytes32"
        }
      ],
      "name": "AccessControlUnauthorizedAccount",
      "type": "error"
    },
    {
      "inputs": [
        {
          "internalType": "address",
          "name": "sender",
          "type": "address"
        },
        {
          "internalType": "uint256",
          "name": "tokenId",
          "type": "uint256"
        },
        {
          "internalType": "address",
          "name": "owner",
          "type": "address"
        }
      ],
      "name": "ERC721IncorrectOwner",
      "type": "error"
    },
    {
      "inputs": [
        {
          "internalType": "address",
          "name": "operator",
          "type": "address"
        },
        {
          "internalType": "uint256",
          "name": "tokenId",
          "type": "uint256"
        }
      ],
      "name": "ERC721InsufficientApproval",
      "type": "error"
    },
    {
      "inputs": [
        {
          "internalType": "address",
          "name": "approver",
          "type": "address"
        }
      ],
      "name": "ERC721InvalidApprover",
      "type": "error"
    },
    {
      "inputs": [
        {
          "internalType": "address",
          "name": "operator",
          "type": "address"
        }
      ],
      "name": "ERC721InvalidOperator",
      "type": "error"
    },
    {
      "inputs": [
        {
          "internalType": "address",
          "name": "owner",
          "type": "address"
        }
      ],
      "name": "ERC721InvalidOwner",
      "type": "error"
    },
    {
      "inputs": [
        {
          "internalType": "address",
          "name": "receiver",
          "type": "address"
        }
      ],
      "name": "ERC721InvalidReceiver",
      "type": "error"
    },
    {
      "inputs": [
        {
          "internalType": "address",
          "name": "sender",
          "type": "address"
        }
      ],
      "name": "ERC721InvalidSender",
      "type": "error"
    },
    {
      "inputs": [
        {
          "internalType": "uint256",
          "name": "tokenId",
          "type": "uint256"
        }
      ],
      "name": "ERC721NonexistentToken",
      "type": "error"
    },
    {
      "anonymous": false,
      "inputs": [
        {
          "indexed": true,
          "internalType": "address",
          "name": "owner",
          "type": "address"
        },
        {
          "indexed": true,
          "internalType": "address",
          "name": "approved",
          "type": "address"
        },
        {
          "indexed": true,
          "internalType": "uint256",
          "name": "tokenId",
          "type": "uint256"
        }
      ],
      "name": "Approval",
      "type": "event"
    },
    {
      "anonymous": false,
      "inputs": [
        {
          "indexed": true,
          "internalType": "address",
          "name": "owner",
          "type": "address"
        },
        {
          "indexed": true,
          "internalType": "address",
          "name": "operator",
          "type": "address"
        },
        {
          "indexed": false,
          "internalType": "bool",
          "name": "approved",
          "type": "bool"
        }
      ],
      "name": "ApprovalForAll",
      "type": "event"
    },
    {
      "anonymous": false,
      "inputs": [
        {
          "indexed": false,
          "internalType": "uint256",
          "name": "_fromTokenId",
          "type": "uint256"
        },
        {
          "indexed": false,
          "internalType": "uint256",
          "name": "_toTokenId",
          "type": "uint256"
        }
      ],
      "name": "BatchMetadataUpdate",
      "type": "event"
    },
    {
      "anonymous": false,
      "inputs": [
        {
          "indexed": true,
          "internalType": "address",
          "name": "intern",
          "type": "address"
        },
        {
          "indexed": true,
          "internalType": "uint256",
          "name": "tokenId",
          "type": "uint256"
        },
        {
          "indexed": false,
          "internalType": "string",
          "name": "metadataURI",
          "type": "string"
        }
      ],
      "name": "CertificateMinted",
      "type": "event"
    },
    {
      "anonymous": false,
      "inputs": [
        {
          "indexed": false,
          "internalType": "uint256",
          "name": "_tokenId",
          "type": "uint256"
        }
      ],
      "name": "MetadataUpdate",
      "type": "event"
    },
    {
      "anonymous": false,
      "inputs": [
        {
          "indexed": true,
          "internalType": "bytes32",
          "name": "role",
          "type": "bytes32"
        },
        {
          "indexed": true,
          "internalType": "bytes32",
          "name": "previousAdminRole",
          "type": "bytes32"
        },
        {
          "indexed": true,
          "internalType": "bytes32",
          "name": "newAdminRole",
          "type": "bytes32"
        }
      ],
      "name": "RoleAdminChanged",
      "type": "event"
    },
    {
      "anonymous": false,
      "inputs": [
        {
          "indexed": true,
          "internalType": "bytes32",
          "name": "role",
          "type": "bytes32"
        },
        {
          "indexed": true,
          "internalType": "address",
          "name": "account",
          "type": "address"
        },
        {
          "indexed": true,
          "internalType": "address",
          "name": "sender",
          "type": "address"
        }
      ],
      "name": "RoleGranted",
      "type": "event"
    },
    {
      "anonymous": false,
      "inputs": [
        {
          "indexed": true,
          "internalType": "bytes32",
          "name": "role",
          "type": "bytes32"
        },
        {
          "indexed": true,
          "internalType": "address",
          "name": "account",
          "type": "address"
        },
        {
          "indexed": true,
          "internalType": "address",
          "name": "sender",
          "type": "address"
        }
      ],
      "name": "RoleRevoked",
      "type": "event"
    },
    {
      "anonymous": false,
      "inputs": [
        {
          "indexed": true,
          "internalType": "address",
          "name": "from",
          "type": "address"
        },
        {
          "indexed": true,
          "internalType": "address",
          "name": "to",
          "type": "address"
        },
        {
          "indexed": true,
          "internalType": "uint256",
          "name": "tokenId",
          "type": "uint256"
        }
      ],
      "name": "Transfer",
      "type": "event"
    },
    {
      "inputs": [],
      "name": "CERTIFICATE_MINTER_ROLE",
      "outputs": [
        {
          "internalType": "bytes32",
          "name": "",
          "type": "bytes32"
        }
      ],
      "stateMutability": "view",
      "type": "function"
    },
    {
      "inputs": [],
      "name": "DEFAULT_ADMIN_ROLE",
      "outputs": [
        {
          "internalType": "bytes32",
          "name": "",
          "type": "bytes32"
        }
      ],
      "stateMutability": "view",
      "type": "function"
    },
    {
      "inputs": [
        {
          "internalType": "address",
          "name": "to",
          "type": "address"
        },
        {
          "internalType": "uint256",
          "name": "tokenId",
          "type": "uint256"
        }
      ],
      "name": "approve",
      "outputs": [],
      "stateMutability": "nonpayable",
      "type": "function"
    },
    {
      "inputs": [
        {
          "internalType": "address",
          "name": "owner",
          "type": "address"
        }
      ],
      "name": "balanceOf",
      "outputs": [
        {
          "internalType": "uint256",
          "name": "",
          "type": "uint256"
        }
      ],
      "stateMutability": "view",
      "type": "function"
    },
    {
      "inputs": [
        {
          "internalType": "uint256",
          "name": "tokenId",
          "type": "uint256"
        }
      ],
      "name": "getApproved",
      "outputs": [
        {
          "internalType": "address",
          "name": "",
          "type": "address"
        }
      ],
      "stateMutability": "view",
      "type": "function"
    },
    {
      "inputs": [
        {
          "internalType": "bytes32",
          "name": "role",
          "type": "bytes32"
        }
      ],
      "name": "getRoleAdmin",
      "outputs": [
        {
          "internalType": "bytes32",
          "name": "",
          "type": "bytes32"
        }
      ],
      "stateMutability": "view",
      "type": "function"
    },
    {
      "inputs": [
        {
          "internalType": "bytes32",
          "name": "role",
          "type": "bytes32"
        },
        {
          "internalType": "address",
          "name": "account",
          "type": "address"
        }
      ],
      "name": "grantRole",
      "outputs": [],
      "stateMutability": "nonpayable",
      "type": "function"
    },
    {
      "inputs": [
        {
          "internalType": "bytes32",
          "name": "role",
          "type": "bytes32"
        },
        {
          "internalType": "address",
          "name": "account",
          "type": "address"
        }
      ],
      "name": "hasRole",
      "outputs": [
        {
          "internalType": "bool",
          "name": "",
          "type": "bool"
        }
      ],
      "stateMutability": "view",
      "type": "function"
    },
    {
      "inputs": [
        {
          "internalType": "address",
          "name": "owner",
          "type": "address"
        },
        {
          "internalType": "address",
          "name": "operator",
          "type": "address"
        }
      ],
      "name": "isApprovedForAll",
      "outputs": [
        {
          "internalType": "bool",
          "name": "",
          "type": "bool"
        }
      ],
      "stateMutability": "view",
      "type": "function"
    },
    {
      "inputs": [
        {
          "internalType": "address",
          "name": "intern",
          "type": "address"
        },
        {
          "internalType": "string",
          "name": "metadataURI",
          "type": "string"
        }
      ],
      "name": "mintCertificate",
      "outputs": [],
      "stateMutability": "nonpayable",
      "type": "function"
    },
    {
      "inputs": [],
      "name": "name",
      "outputs": [
        {
          "internalType": "string",
          "name": "",
          "type": "string"
        }
      ],
      "stateMutability": "view",
      "type": "function"
    },
    {
      "inputs": [
        {
          "internalType": "uint256",
          "name": "tokenId",
          "type": "uint256"
        }
      ],
      "name": "ownerOf",
      "outputs": [
        {
          "internalType": "address",
          "name": "",
          "type": "address"
        }
      ],
      "stateMutability": "view",
      "type": "function"
    },
    {
      "inputs": [
        {
          "internalType": "bytes32",
          "name": "role",
          "type": "bytes32"
        },
        {
          "internalType": "address",
          "name": "callerConfirmation",
          "type": "address"
        }
      ],
      "name": "renounceRole",
      "outputs": [],
      "stateMutability": "nonpayable",
      "type": "function"
    },
    {
      "inputs": [
        {
          "internalType": "bytes32",
          "name": "role",
          "type": "bytes32"
        },
        {
          "internalType": "address",
          "name": "account",
          "type": "address"
        }
      ],
      "name": "revokeRole",
      "outputs": [],
      "stateMutability": "nonpayable",
      "type": "function"
    },
    {
      "inputs": [
        {
          "internalType": "address",
          "name": "from",
          "type": "address"
        },
        {
          "internalType": "address",
          "name": "to",
          "type": "address"
        },
        {
          "internalType": "uint256",
          "name": "tokenId",
          "type": "uint256"
        }
      ],
      "name": "safeTransferFrom",
      "outputs": [],
      "stateMutability": "nonpayable",
      "type": "function"
    },
    {
      "inputs": [
        {
          "internalType": "address",
          "name": "from",
          "type": "address"
        },
        {
          "internalType": "address",
          "name": "to",
          "type": "address"
        },
        {
          "internalType": "uint256",
          "name": "tokenId",
          "type": "uint256"
        },
        {
          "internalType": "bytes",
          "name": "data",
          "type": "bytes"
        }
      ],
      "name": "safeTransferFrom",
      "outputs": [],
      "stateMutability": "nonpayable",
      "type": "function"
    },
    {
      "inputs": [
        {
          "internalType": "address",
          "name": "operator",
          "type": "address"
        },
        {
          "internalType": "bool",
          "name": "approved",
          "type": "bool"
        }
      ],
      "name": "setApprovalForAll",
      "outputs": [],
      "stateMutability": "nonpayable",
      "type": "function"
    },
    {
      "inputs": [
        {
          "internalType": "bytes4",
          "name": "id",
          "type": "bytes4"
        }
      ],
      "name": "supportsInterface",
      "outputs": [
        {
          "internalType": "bool",
          "name": "",
          "type": "bool"
        }
      ],
      "stateMutability": "view",
      "type": "function"
    },
    {
      "inputs": [],
      "name": "symbol",
      "outputs": [
        {
          "internalType": "string",
          "name": "",
          "type": "string"
        }
      ],
      "stateMutability": "view",
      "type": "function"
    },
    {
      "inputs": [
        {
          "internalType": "uint256",
          "name": "tokenId",
          "type": "uint256"
        }
      ],
      "name": "tokenURI",
      "outputs": [
        {
          "internalType": "string",
          "name": "",
          "type": "string"
        }
      ],
      "stateMutability": "view",
      "type": "function"
    },
    {
      "inputs": [
        {
          "internalType": "address",
          "name": "from",
          "type": "address"
        },
        {
          "internalType": "address",
          "name": "to",
          "type": "address"
        },
        {
          "internalType": "uint256",
          "name": "tokenId",
          "type": "uint256"
        }
      ],
      "name": "transferFrom",
      "outputs": [],
      "stateMutability": "nonpayable",
      "type": "function"
    }
  ],
  "bytecode": "0x60806040523480156200001157600080fd5b506040518060400160405280601581526020017f496e7465726e73686970436572746966696361746500000000000000000000008152506040518060400160405280600581526020017f494345525400000000000000000000000000000000000000000000000000000081525081600090816200008f9190620004e4565b508060019081620000a19190620004e4565b505050620000b96000801b33620000f360201b60201c565b50620000ec7f579ea3d1eb53924330bcf0238e18cedfa369d830406c364885956b153e2e0a2933620000f360201b60201c565b50620005cb565b6000620001078383620001f760201b60201c565b620001ec5760016007600085815260200190815260200160002060000160008473ffffffffffffffffffffffffffffffffffffffff1673ffffffffffffffffffffffffffffffffffffffff16815260200190815260200160002060006101000a81548160ff021916908315150217905550620001886200026260201b60201c565b73ffffffffffffffffffffffffffffffffffffffff168273ffffffffffffffffffffffffffffffffffffffff16847f2f8788117e7eff1d82e926ec794901d17c78024a50270940304540a733656f0d60405160405180910390a460019050620001f1565b600090505b92915050565b60006007600084815260200190815260200160002060000160008373ffffffffffffffffffffffffffffffffffffffff1673ffffffffffffffffffffffffffffffffffffffff16815260200190815260200160002060009054906101000a900460ff16905092915050565b600033905090565b600081519050919050565b7f4e487b7100000000000000000000000000000000000000000000000000000000600052604160045260246000fd5b7f4e487b7100000000000000000000000000000000000000000000000000000000600052602260045260246000fd5b60006002820490506001821680620002ec57607f821691505b602082108103620003025762000301620002a4565b5b50919050565b60008190508160005260206000209050919050565b60006020601f8301049050919050565b600082821b905092915050565b6000600883026200036c7fffffffffffffffffffffffffffffffffffffffffffffffffffffffffffffffff826200032d565b6200037886836200032d565b95508019841693508086168417925050509392505050565b6000819050919050565b6000819050919050565b6000620003c5620003bf620003b98462000390565b6200039a565b62000390565b9050919050565b6000819050919050565b620003e183620003a4565b620003f9620003f082620003cc565b8484546200033a565b825550505050565b600090565b6200041062000401565b6200041d818484620003d6565b505050565b5b8181101562000445576200043960008262000406565b60018101905062000423565b5050565b601f82111562000494576200045e8162000308565b62000469846200031d565b8101602085101562000479578190505b6200049162000488856200031d565b83018262000422565b50505b505050565b600082821c905092915050565b6000620004b96000198460080262000499565b1980831691505092915050565b6000620004d48383620004a6565b9150826002028217905092915050565b620004ef826200026a565b67ffffffffffffffff8111156200050b576200050a62000275565b5b620005178254620002d3565b6200052482828562000449565b600060209050601f8311600181146200055c576000841562000547578287015190505b620005538582620004c6565b865550620005c3565b601f1984166200056c8662000308565b60005b8281101562000596578489015182556001820191506020850194506020810190506200056f565b86831015620005b65784890151620005b2601f891682620004a6565b8355505b6001600288020188555050505b505050505050565b612b3d80620005db6000396000f3fe608060405234801561001057600080fd5b50600436106101375760003560e01c806353bb9749116100b8578063a217fddf1161007c578063a217fddf1461035e578063a22cb4651461037c578063b88d4fde14610398578063c87b56dd146103b4578063d547741f146103e4578063e985e9c51461040057610137565b806353bb9749146102925780636352211e146102b057806370a08231146102e057806391d148541461031057806395d89b411461034057610137565b806323b872dd116100ff57806323b872dd146101f2578063248a9ca31461020e5780632f2ff15d1461023e57806336568abe1461025a57806342842e0e1461027657610137565b806301ffc9a71461013c57806306fdde031461016c5780630712249f1461018a578063081812fc146101a6578063095ea7b3146101d6575b600080fd5b61015660048036038101906101519190611e8b565b610430565b6040516101639190611ed3565b60405180910390f35b610174610442565b6040516101819190611f7e565b60405180910390f35b6101a4600480360381019061019f9190612063565b6104d4565b005b6101c060048036038101906101bb91906120f9565b6105cd565b6040516101cd9190612135565b60405180910390f35b6101f060048036038101906101eb9190612150565b6105e9565b005b61020c60048036038101906102079190612190565b6105ff565b005b61022860048036038101906102239190612219565b610701565b6040516102359190612255565b60405180910390f35b61025860048036038101906102539190612270565b610721565b005b610274600480360381019061026f9190612270565b610743565b005b610290600480360381019061028b9190612190565b6107be565b005b61029a6107de565b6040516102a79190612255565b60405180910390f35b6102ca60048036038101906102c591906120f9565b610802565b6040516102d79190612135565b60405180910390f35b6102fa60048036038101906102f591906122b0565b610814565b60405161030791906122ec565b60405180910390f35b61032a60048036038101906103259190612270565b6108ce565b6040516103379190611ed3565b60405180910390f35b610348610939565b6040516103559190611f7e565b60405180910390f35b6103666109cb565b6040516103739190612255565b60405180910390f35b61039660048036038101906103919190612333565b6109d2565b005b6103b260048036038101906103ad91906124a3565b6109e8565b005b6103ce60048036038101906103c991906120f9565b610a0d565b6040516103db9190611f7e565b60405180910390f35b6103fe60048036038101906103f99190612270565b610b20565b005b61041a60048036038101906104159190612526565b610b42565b6040516104279190611ed3565b60405180910390f35b600061043b82610bd6565b9050919050565b60606000805461045190612595565b80601f016020809104026020016040519081016040528092919081815260200182805461047d90612595565b80156104ca5780601f1061049f576101008083540402835291602001916104ca565b820191906000526020600020905b8154815290600101906020018083116104ad57829003601f168201915b5050505050905090565b7f579ea3d1eb53924330bcf0238e18cedfa369d830406c364885956b153e2e0a296104fe81610c50565b60086000815480929190610511906125f5565b9190505550600060085490506105278582610c64565b6105758185858080601f016020809104026020016040519081016040528093929190818152602001838380828437600081840152601f19601f82011690508083019250505050505050610c82565b808573ffffffffffffffffffffffffffffffffffffffff167fde5d6fd45e32fffb472bcbaeedf6a2e3944633c9701eec7d99adfa07ad6104c186866040516105be92919061266a565b60405180910390a35050505050565b60006105d882610cde565b506105e282610d66565b9050919050565b6105fb82826105f6610da3565b610dab565b5050565b600073ffffffffffffffffffffffffffffffffffffffff168273ffffffffffffffffffffffffffffffffffffffff16036106715760006040517f64a0ae920000000000000000000000000000000000000000000000000000000081526004016106689190612135565b60405180910390fd5b60006106858383610680610da3565b610dbd565b90508373ffffffffffffffffffffffffffffffffffffffff168173ffffffffffffffffffffffffffffffffffffffff16146106fb578382826040517f64283d7b0000000000000000000000000000000000000000000000000000000081526004016106f29392919061268e565b60405180910390fd5b50505050565b600060076000838152602001908152602001600020600101549050919050565b61072a82610701565b61073381610c50565b61073d8383610fd7565b50505050565b61074b610da3565b73ffffffffffffffffffffffffffffffffffffffff168173ffffffffffffffffffffffffffffffffffffffff16146107af576040517f6697b23200000000000000000000000000000000000000000000000000000000815260040160405180910390fd5b6107b982826110c9565b505050565b6107d9838383604051806020016040528060008152506109e8565b505050565b7f579ea3d1eb53924330bcf0238e18cedfa369d830406c364885956b153e2e0a2981565b600061080d82610cde565b9050919050565b60008073ffffffffffffffffffffffffffffffffffffffff168273ffffffffffffffffffffffffffffffffffffffff16036108875760006040517f89c62b6400000000000000000000000000000000000000000000000000000000815260040161087e9190612135565b60405180910390fd5b600360008373ffffffffffffffffffffffffffffffffffffffff1673ffffffffffffffffffffffffffffffffffffffff168152602001908152602001600020549050919050565b60006007600084815260200190815260200160002060000160008373ffffffffffffffffffffffffffffffffffffffff1673ffffffffffffffffffffffffffffffffffffffff16815260200190815260200160002060009054906101000a900460ff16905092915050565b60606001805461094890612595565b80601f016020809104026020016040519081016040528092919081815260200182805461097490612595565b80156109c15780601f10610996576101008083540402835291602001916109c1565b820191906000526020600020905b8154815290600101906020018083116109a457829003601f168201915b5050505050905090565b6000801b81565b6109e46109dd610da3565b83836111bc565b5050565b6109f38484846105ff565b610a076109fe610da3565b8585858561132b565b50505050565b6060610a1882610cde565b506000600660008481526020019081526020016000208054610a3990612595565b80601f0160208091040260200160405190810160405280929190818152602001828054610a6590612595565b8015610ab25780601f10610a8757610100808354040283529160200191610ab2565b820191906000526020600020905b815481529060010190602001808311610a9557829003601f168201915b505050505090506000610ac36114dc565b90506000815103610ad8578192505050610b1b565b600082511115610b0d578082604051602001610af5929190612701565b60405160208183030381529060405292505050610b1b565b610b16846114f3565b925050505b919050565b610b2982610701565b610b3281610c50565b610b3c83836110c9565b50505050565b6000600560008473ffffffffffffffffffffffffffffffffffffffff1673ffffffffffffffffffffffffffffffffffffffff16815260200190815260200160002060008373ffffffffffffffffffffffffffffffffffffffff1673ffffffffffffffffffffffffffffffffffffffff16815260200190815260200160002060009054906101000a900460ff16905092915050565b60007f7965db0b000000000000000000000000000000000000000000000000000000007bffffffffffffffffffffffffffffffffffffffffffffffffffffffff1916827bffffffffffffffffffffffffffffffffffffffffffffffffffffffff19161480610c495750610c488261155c565b5b9050919050565b610c6181610c5c610da3565b6115bd565b50565b610c7e82826040518060200160405280600081525061160e565b5050565b80600660008481526020019081526020016000209081610ca291906128d1565b507ff8e1a15aba9398e019f0b49df1a4fde98ee17ae345cb5f6b5e2c27f5033e8ce782604051610cd291906122ec565b60405180910390a15050565b600080610cea83611632565b9050600073ffffffffffffffffffffffffffffffffffffffff168173ffffffffffffffffffffffffffffffffffffffff1603610d5d57826040517f7e273289000000000000000000000000000000000000000000000000000000008152600401610d5491906122ec565b60405180910390fd5b80915050919050565b60006004600083815260200190815260200160002060009054906101000a900473ffffffffffffffffffffffffffffffffffffffff169050919050565b600033905090565b610db8838383600161166f565b505050565b600080610dc984611632565b9050600073ffffffffffffffffffffffffffffffffffffffff168373ffffffffffffffffffffffffffffffffffffffff1614610e0b57610e0a818486611834565b5b600073ffffffffffffffffffffffffffffffffffffffff168173ffffffffffffffffffffffffffffffffffffffff1614610e9c57610e4d60008560008061166f565b6001600360008373ffffffffffffffffffffffffffffffffffffffff1673ffffffffffffffffffffffffffffffffffffffff168152602001908152602001600020600082825403925050819055505b600073ffffffffffffffffffffffffffffffffffffffff168573ffffffffffffffffffffffffffffffffffffffff1614610f1f576001600360008773ffffffffffffffffffffffffffffffffffffffff1673ffffffffffffffffffffffffffffffffffffffff168152602001908152602001600020600082825401925050819055505b846002600086815260200190815260200160002060006101000a81548173ffffffffffffffffffffffffffffffffffffffff021916908373ffffffffffffffffffffffffffffffffffffffff160217905550838573ffffffffffffffffffffffffffffffffffffffff168273ffffffffffffffffffffffffffffffffffffffff167fddf252ad1be2c89b69c2b068fc378daa952ba7f163c4a11628f55a4df523b3ef60405160405180910390a4809150509392505050565b6000610fe383836108ce565b6110be5760016007600085815260200190815260200160002060000160008473ffffffffffffffffffffffffffffffffffffffff1673ffffffffffffffffffffffffffffffffffffffff16815260200190815260200160002060006101000a81548160ff02191690831515021790555061105b610da3565b73ffffffffffffffffffffffffffffffffffffffff168273ffffffffffffffffffffffffffffffffffffffff16847f2f8788117e7eff1d82e926ec794901d17c78024a50270940304540a733656f0d60405160405180910390a4600190506110c3565b600090505b92915050565b60006110d583836108ce565b156111b15760006007600085815260200190815260200160002060000160008473ffffffffffffffffffffffffffffffffffffffff1673ffffffffffffffffffffffffffffffffffffffff16815260200190815260200160002060006101000a81548160ff02191690831515021790555061114e610da3565b73ffffffffffffffffffffffffffffffffffffffff168273ffffffffffffffffffffffffffffffffffffffff16847ff6391f5c32d9c69d2a47ea670b442974b53935d1edc7fd64eb21e047a839171b60405160405180910390a4600190506111b6565b600090505b92915050565b600073ffffffffffffffffffffffffffffffffffffffff168273ffffffffffffffffffffffffffffffffffffffff160361122d57816040517f5b08ba180000000000000000000000000000000000000000000000000000000081526004016112249190612135565b60405180910390fd5b80600560008573ffffffffffffffffffffffffffffffffffffffff1673ffffffffffffffffffffffffffffffffffffffff16815260200190815260200160002060008473ffffffffffffffffffffffffffffffffffffffff1673ffffffffffffffffffffffffffffffffffffffff16815260200190815260200160002060006101000a81548160ff0219169083151502179055508173ffffffffffffffffffffffffffffffffffffffff168373ffffffffffffffffffffffffffffffffffffffff167f17307eab39ab6107e8899845ad3d59bd9653f200f220920489ca2b5937696c318360405161131e9190611ed3565b60405180910390a3505050565b60008373ffffffffffffffffffffffffffffffffffffffff163b11156114d5578273ffffffffffffffffffffffffffffffffffffffff1663150b7a02868685856040518563ffffffff1660e01b815260040161138a94939291906129f8565b6020604051808303816000875af19250505080156113c657506040513d601f19601f820116820180604052508101906113c39190612a59565b60015b61144a573d80600081146113f6576040519150601f19603f3d011682016040523d82523d6000602084013e6113fb565b606091505b50600081510361144257836040517f64a0ae920000000000000000000000000000000000000000000000000000000081526004016114399190612135565b60405180910390fd5b805160208201fd5b63150b7a0260e01b7bffffffffffffffffffffffffffffffffffffffffffffffffffffffff1916817bffffffffffffffffffffffffffffffffffffffffffffffffffffffff1916146114d357836040517f64a0ae920000000000000000000000000000000000000000000000000000000081526004016114ca9190612135565b60405180910390fd5b505b5050505050565b606060405180602001604052806000815250905090565b60606114fe82610cde565b5060006115096114dc565b905060008151116115295760405180602001604052806000815250611554565b80611533846118f8565b604051602001611544929190612701565b6040516020818303038152906040525b915050919050565b6000634906490660e01b7bffffffffffffffffffffffffffffffffffffffffffffffffffffffff1916827bffffffffffffffffffffffffffffffffffffffffffffffffffffffff191614806115b657506115b5826119c6565b5b9050919050565b6115c782826108ce565b61160a5780826040517fe2517d3f000000000000000000000000000000000000000000000000000000008152600401611601929190612a86565b60405180910390fd5b5050565b6116188383611aa8565b61162d611623610da3565b600085858561132b565b505050565b60006002600083815260200190815260200160002060009054906101000a900473ffffffffffffffffffffffffffffffffffffffff169050919050565b80806116a85750600073ffffffffffffffffffffffffffffffffffffffff168273ffffffffffffffffffffffffffffffffffffffff1614155b156117dc5760006116b884610cde565b9050600073ffffffffffffffffffffffffffffffffffffffff168373ffffffffffffffffffffffffffffffffffffffff161415801561172357508273ffffffffffffffffffffffffffffffffffffffff168173ffffffffffffffffffffffffffffffffffffffff1614155b801561173657506117348184610b42565b155b1561177857826040517fa9fbf51f00000000000000000000000000000000000000000000000000000000815260040161176f9190612135565b60405180910390fd5b81156117da57838573ffffffffffffffffffffffffffffffffffffffff168273ffffffffffffffffffffffffffffffffffffffff167f8c5be1e5ebec7d5bd14f71427d1e84f3dd0314c0f7b2291e5b200ac8c7c3b92560405160405180910390a45b505b836004600085815260200190815260200160002060006101000a81548173ffffffffffffffffffffffffffffffffffffffff021916908373ffffffffffffffffffffffffffffffffffffffff16021790555050505050565b61183f838383611ba1565b6118f357600073ffffffffffffffffffffffffffffffffffffffff168373ffffffffffffffffffffffffffffffffffffffff16036118b457806040517f7e2732890000000000000000000000000000000000000000000000000000000081526004016118ab91906122ec565b60405180910390fd5b81816040517f177e802f0000000000000000000000000000000000000000000000000000000081526004016118ea929190612aaf565b60405180910390fd5b505050565b60606000600161190784611c62565b01905060008167ffffffffffffffff81111561192657611925612378565b5b6040519080825280601f01601f1916602001820160405280156119585781602001600182028036833780820191505090505b509050600082602083010190505b6001156119bb578080600190039150507f3031323334353637383961626364656600000000000000000000000000000000600a86061a8153600a85816119af576119ae612ad8565b5b04945060008503611966575b819350505050919050565b60007f80ac58cd000000000000000000000000000000000000000000000000000000007bffffffffffffffffffffffffffffffffffffffffffffffffffffffff1916827bffffffffffffffffffffffffffffffffffffffffffffffffffffffff19161480611a9157507f5b5e139f000000000000000000000000000000000000000000000000000000007bffffffffffffffffffffffffffffffffffffffffffffffffffffffff1916827bffffffffffffffffffffffffffffffffffffffffffffffffffffffff1916145b80611aa15750611aa082611db5565b5b9050919050565b600073ffffffffffffffffffffffffffffffffffffffff168273ffffffffffffffffffffffffffffffffffffffff1603611b1a5760006040517f64a0ae92000000000000000000000000000000000000000000000000000000008152600401611b119190612135565b60405180910390fd5b6000611b2883836000610dbd565b9050600073ffffffffffffffffffffffffffffffffffffffff168173ffffffffffffffffffffffffffffffffffffffff1614611b9c5760006040517f73c6ac6e000000000000000000000000000000000000000000000000000000008152600401611b939190612135565b60405180910390fd5b505050565b60008073ffffffffffffffffffffffffffffffffffffffff168373ffffffffffffffffffffffffffffffffffffffff1614158015611c5957508273ffffffffffffffffffffffffffffffffffffffff168473ffffffffffffffffffffffffffffffffffffffff161480611c1a5750611c198484610b42565b5b80611c5857508273ffffffffffffffffffffffffffffffffffffffff16611c4083610d66565b73ffffffffffffffffffffffffffffffffffffffff16145b5b90509392505050565b600080600090507a184f03e93ff9f4daa797ed6e38ed64bf6a1f0100000000000000008310611cc0577a184f03e93ff9f4daa797ed6e38ed64bf6a1f0100000000000000008381611cb657611cb5612ad8565b5b0492506040810190505b6d04ee2d6d415b85acef81000000008310611cfd576d04ee2d6d415b85acef81000000008381611cf357611cf2612ad8565b5b0492506020810190505b662386f26fc100008310611d2c57662386f26fc100008381611d2257611d21612ad8565b5b0492506010810190505b6305f5e1008310611d55576305f5e1008381611d4b57611d4a612ad8565b5b0492506008810190505b6127108310611d7a576127108381611d7057611d6f612ad8565b5b0492506004810190505b60648310611d9d5760648381611d9357611d92612ad8565b5b0492506002810190505b600a8310611dac576001810190505b80915050919050565b60007f01ffc9a7000000000000000000000000000000000000000000000000000000007bffffffffffffffffffffffffffffffffffffffffffffffffffffffff1916827bffffffffffffffffffffffffffffffffffffffffffffffffffffffff1916149050919050565b6000604051905090565b600080fd5b600080fd5b60007fffffffff0000000000000000000000000000000000000000000000000000000082169050919050565b611e6881611e33565b8114611e7357600080fd5b50565b600081359050611e8581611e5f565b92915050565b600060208284031215611ea157611ea0611e29565b5b6000611eaf84828501611e76565b91505092915050565b60008115159050919050565b611ecd81611eb8565b82525050565b6000602082019050611ee86000830184611ec4565b92915050565b600081519050919050565b600082825260208201905092915050565b60005b83811015611f28578082015181840152602081019050611f0d565b60008484015250505050565b6000601f19601f8301169050919050565b6000611f5082611eee565b611f5a8185611ef9565b9350611f6a818560208601611f0a565b611f7381611f34565b840191505092915050565b60006020820190508181036000830152611f988184611f45565b905092915050565b600073ffffffffffffffffffffffffffffffffffffffff82169050919050565b6000611fcb82611fa0565b9050919050565b611fdb81611fc0565b8114611fe657600080fd5b50565b600081359050611ff881611fd2565b92915050565b600080fd5b600080fd5b600080fd5b60008083601f84011261202357612022611ffe565b5b8235905067ffffffffffffffff8111156120405761203f612003565b5b60208301915083600182028301111561205c5761205b612008565b5b9250929050565b60008060006040848603121561207c5761207b611e29565b5b600061208a86828701611fe9565b935050602084013567ffffffffffffffff8111156120ab576120aa611e2e565b5b6120b78682870161200d565b92509250509250925092565b6000819050919050565b6120d6816120c3565b81146120e157600080fd5b50565b6000813590506120f3816120cd565b92915050565b60006020828403121561210f5761210e611e29565b5b600061211d848285016120e4565b91505092915050565b61212f81611fc0565b82525050565b600060208201905061214a6000830184612126565b92915050565b6000806040838503121561216757612166611e29565b5b600061217585828601611fe9565b9250506020612186858286016120e4565b9150509250929050565b6000806000606084860312156121a9576121a8611e29565b5b60006121b786828701611fe9565b93505060206121c886828701611fe9565b92505060406121d9868287016120e4565b9150509250925092565b6000819050919050565b6121f6816121e3565b811461220157600080fd5b50565b600081359050612213816121ed565b92915050565b60006020828403121561222f5761222e611e29565b5b600061223d84828501612204565b91505092915050565b61224f816121e3565b82525050565b600060208201905061226a6000830184612246565b92915050565b6000806040838503121561228757612286611e29565b5b600061229585828601612204565b92505060206122a685828601611fe9565b9150509250929050565b6000602082840312156122c6576122c5611e29565b5b60006122d484828501611fe9565b91505092915050565b6122e6816120c3565b82525050565b600060208201905061230160008301846122dd565b92915050565b61231081611eb8565b811461231b57600080fd5b50565b60008135905061232d81612307565b92915050565b6000806040838503121561234a57612349611e29565b5b600061235885828601611fe9565b92505060206123698582860161231e565b9150509250929050565b600080fd5b7f4e487b7100000000000000000000000000000000000000000000000000000000600052604160045260246000fd5b6123b082611f34565b810181811067ffffffffffffffff821117156123cf576123ce612378565b5b80604052505050565b60006123e2611e1f565b90506123ee82826123a7565b919050565b600067ffffffffffffffff82111561240e5761240d612378565b5b61241782611f34565b9050602081019050919050565b82818337600083830152505050565b6000612446612441846123f3565b6123d8565b90508281526020810184848401111561246257612461612373565b5b61246d848285612424565b509392505050565b600082601f83011261248a57612489611ffe565b5b813561249a848260208601612433565b91505092915050565b600080600080608085870312156124bd576124bc611e29565b5b60006124cb87828801611fe9565b94505060206124dc87828801611fe9565b93505060406124ed878288016120e4565b925050606085013567ffffffffffffffff81111561250e5761250d611e2e565b5b61251a87828801612475565b91505092959194509250565b6000806040838503121561253d5761253c611e29565b5b600061254b85828601611fe9565b925050602061255c85828601611fe9565b9150509250929050565b7f4e487b7100000000000000000000000000000000000000000000000000000000600052602260045260246000fd5b600060028204905060018216806125ad57607f821691505b6020821081036125c0576125bf612566565b5b50919050565b7f4e487b7100000000000000000000000000000000000000000000000000000000600052601160045260246000fd5b6000612600826120c3565b91507fffffffffffffffffffffffffffffffffffffffffffffffffffffffffffffffff8203612632576126316125c6565b5b600182019050919050565b60006126498385611ef9565b9350612656838584612424565b61265f83611f34565b840190509392505050565b6000602082019050818103600083015261268581848661263d565b90509392505050565b60006060820190506126a36000830186612126565b6126b060208301856122dd565b6126bd6040830184612126565b949350505050565b600081905092915050565b60006126db82611eee565b6126e581856126c5565b93506126f5818560208601611f0a565b80840191505092915050565b600061270d82856126d0565b915061271982846126d0565b91508190509392505050565b60008190508160005260206000209050919050565b60006020601f8301049050919050565b600082821b905092915050565b6000600883026127877fffffffffffffffffffffffffffffffffffffffffffffffffffffffffffffffff8261274a565b612791868361274a565b95508019841693508086168417925050509392505050565b6000819050919050565b60006127ce6127c96127c4846120c3565b6127a9565b6120c3565b9050919050565b6000819050919050565b6127e8836127b3565b6127fc6127f4826127d5565b848454612757565b825550505050565b600090565b612811612804565b61281c8184846127df565b505050565b5b8181101561284057612835600082612809565b600181019050612822565b5050565b601f8211156128855761285681612725565b61285f8461273a565b8101602085101561286e578190505b61288261287a8561273a565b830182612821565b50505b505050565b600082821c905092915050565b60006128a86000198460080261288a565b1980831691505092915050565b60006128c18383612897565b9150826002028217905092915050565b6128da82611eee565b67ffffffffffffffff8111156128f3576128f2612378565b5b6128fd8254612595565b612908828285612844565b600060209050601f83116001811461293b5760008415612929578287015190505b61293385826128b5565b86555061299b565b601f19841661294986612725565b60005b828110156129715784890151825560018201915060208501945060208101905061294c565b8683101561298e578489015161298a601f891682612897565b8355505b6001600288020188555050505b505050505050565b600081519050919050565b600082825260208201905092915050565b60006129ca826129a3565b6129d481856129ae565b93506129e4818560208601611f0a565b6129ed81611f34565b840191505092915050565b6000608082019050612a0d6000830187612126565b612a1a6020830186612126565b612a2760408301856122dd565b8181036060830152612a3981846129bf565b905095945050505050565b600081519050612a5381611e5f565b92915050565b600060208284031215612a6f57612a6e611e29565b5b6000612a7d84828501612a44565b91505092915050565b6000604082019050612a9b6000830185612126565b612aa86020830184612246565b9392505050565b6000604082019050612ac46000830185612126565b612ad160208301846122dd565b9392505050565b7f4e487b7100000000000000000000000000000000000000000000000000000000600052601260045260246000fdfea26469706673582212209083aa9ae9fea124617c806536f56450bbb3969da6cf9b85019e720b2d462d8b64736f6c63430008140033",
  "linkReferences": {},
  "deployedLinkReferences": {}
}