{
  "_format": "hh-sol-artifact-1",
  "contractName": "MintingController",
  "sourceName": "contracts/MintingController.sol",
  "abi": [
    {
      "inputs": [
        {
          "internalType": "address",
          "name": "_rewardToken",
          "type": "address"
        },
        {
          "internalType": "address",
          "name": "_taskToken",
          "type": "address"
        },
        {
          "internalType": "address",
          "name": "_certificateNFT",
          "type": "address"
        },
        {
          "internalType": "address",
          "name": "_badgeNFT",
          "type": "address"
        }
      ],
      "stateMutability": "nonpayable",
      "type": "constructor"
    },
    {
      "inputs": [],
      "name": "AccessControlBadConfirmation",
      "type": "error"
    },
    {
      "inputs": [
        {
          "internalType": "address",
          "name": "account",
          "type": "address"
        },
        {
          "internalType": "bytes32",
          "name": "neededRole",
          "type": "bytes32"
        }
      ],
      "name": "AccessControlUnauthorizedAccount",
      "type": "error"
    },
    {
      "anonymous": false,
      "inputs": [
        {
          "indexed": true,
          "internalType": "bytes32",
          "name": "role",
          "type": "bytes32"
        },
        {
          "indexed": true,
          "internalType": "bytes32",
          "name": "previousAdminRole",
          "type": "bytes32"
        },
        {
          "indexed": true,
          "internalType": "bytes32",
          "name": "newAdminRole",
          "type": "bytes32"
        }
      ],
      "name": "RoleAdminChanged",
      "type": "event"
    },
    {
      "anonymous": false,
      "inputs": [
        {
          "indexed": true,
          "internalType": "bytes32",
          "name": "role",
          "type": "bytes32"
        },
        {
          "indexed": true,
          "internalType": "address",
          "name": "account",
          "type": "address"
        },
        {
          "indexed": true,
          "internalType": "address",
          "name": "sender",
          "type": "address"
        }
      ],
      "name": "RoleGranted",
      "type": "event"
    },
    {
      "anonymous": false,
      "inputs": [
        {
          "indexed": true,
          "internalType": "bytes32",
          "name": "role",
          "type": "bytes32"
        },
        {
          "indexed": true,
          "internalType": "address",
          "name": "account",
          "type": "address"
        },
        {
          "indexed": true,
          "internalType": "address",
          "name": "sender",
          "type": "address"
        }
      ],
      "name": "RoleRevoked",
      "type": "event"
    },
    {
      "inputs": [],
      "name": "BACKEND_ROLE",
      "outputs": [
        {
          "internalType": "bytes32",
          "name": "",
          "type": "bytes32"
        }
      ],
      "stateMutability": "view",
      "type": "function"
    },
    {
      "inputs": [],
      "name": "DEFAULT_ADMIN_ROLE",
      "outputs": [
        {
          "internalType": "bytes32",
          "name": "",
          "type": "bytes32"
        }
      ],
      "stateMutability": "view",
      "type": "function"
    },
    {
      "inputs": [],
      "name": "badgeNFT",
      "outputs": [
        {
          "internalType": "contract AchievementBadgeNFT",
          "name": "",
          "type": "address"
        }
      ],
      "stateMutability": "view",
      "type": "function"
    },
    {
      "inputs": [],
      "name": "certificateNFT",
      "outputs": [
        {
          "internalType": "contract InternshipCertificateNFT",
          "name": "",
          "type": "address"
        }
      ],
      "stateMutability": "view",
      "type": "function"
    },
    {
      "inputs": [
        {
          "internalType": "bytes32",
          "name": "role",
          "type": "bytes32"
        }
      ],
      "name": "getRoleAdmin",
      "outputs": [
        {
          "internalType": "bytes32",
          "name": "",
          "type": "bytes32"
        }
      ],
      "stateMutability": "view",
      "type": "function"
    },
    {
      "inputs": [
        {
          "internalType": "address",
          "name": "intern",
          "type": "address"
        },
        {
          "internalType": "string",
          "name": "badgeURI",
          "type": "string"
        }
      ],
      "name": "giveBadge",
      "outputs": [],
      "stateMutability": "nonpayable",
      "type": "function"
    },
    {
      "inputs": [
        {
          "internalType": "address",
          "name": "intern",
          "type": "address"
        },
        {
          "internalType": "uint256",
          "name": "amount",
          "type": "uint256"
        },
        {
          "internalType": "uint256",
          "name": "reason",
          "type": "uint256"
        }
      ],
      "name": "giveReward",
      "outputs": [],
      "stateMutability": "nonpayable",
      "type": "function"
    },
    {
      "inputs": [
        {
          "internalType": "address",
          "name": "intern",
          "type": "address"
        },
        {
          "internalType": "uint256",
          "name": "amount",
          "type": "uint256"
        },
        {
          "internalType": "uint256",
          "name": "taskId",
          "type": "uint256"
        }
      ],
      "name": "giveTaskReward",
      "outputs": [],
      "stateMutability": "nonpayable",
      "type": "function"
    },
    {
      "inputs": [
        {
          "internalType": "bytes32",
          "name": "role",
          "type": "bytes32"
        },
        {
          "internalType": "address",
          "name": "account",
          "type": "address"
        }
      ],
      "name": "grantRole",
      "outputs": [],
      "stateMutability": "nonpayable",
      "type": "function"
    },
    {
      "inputs": [
        {
          "internalType": "bytes32",
          "name": "role",
          "type": "bytes32"
        },
        {
          "internalType": "address",
          "name": "account",
          "type": "address"
        }
      ],
      "name": "hasRole",
      "outputs": [
        {
          "internalType": "bool",
          "name": "",
          "type": "bool"
        }
      ],
      "stateMutability": "view",
      "type": "function"
    },
    {
      "inputs": [
        {
          "internalType": "address",
          "name": "intern",
          "type": "address"
        },
        {
          "internalType": "string",
          "name": "metadataURI",
          "type": "string"
        }
      ],
      "name": "issueCertificate",
      "outputs": [],
      "stateMutability": "nonpayable",
      "type": "function"
    },
    {
      "inputs": [
        {
          "internalType": "bytes32",
          "name": "role",
          "type": "bytes32"
        },
        {
          "internalType": "address",
          "name": "callerConfirmation",
          "type": "address"
        }
      ],
      "name": "renounceRole",
      "outputs": [],
      "stateMutability": "nonpayable",
      "type": "function"
    },
    {
      "inputs": [
        {
          "internalType": "bytes32",
          "name": "role",
          "type": "bytes32"
        },
        {
          "internalType": "address",
          "name": "account",
          "type": "address"
        }
      ],
      "name": "revokeRole",
      "outputs": [],
      "stateMutability": "nonpayable",
      "type": "function"
    },
    {
      "inputs": [],
      "name": "rewardToken",
      "outputs": [
        {
          "internalType": "contract InternRewardToken",
          "name": "",
          "type": "address"
        }
      ],
      "stateMutability": "view",
      "type": "function"
    },
    {
      "inputs": [
        {
          "internalType": "bytes4",
          "name": "interfaceId",
          "type": "bytes4"
        }
      ],
      "name": "supportsInterface",
      "outputs": [
        {
          "internalType": "bool",
          "name": "",
          "type": "bool"
        }
      ],
      "stateMutability": "view",
      "type": "function"
    },
    {
      "inputs": [],
      "name": "taskToken",
      "outputs": [
        {
          "internalType": "contract TaskCompletionToken",
          "name": "",
          "type": "address"
        }
      ],
      "stateMutability": "view",
      "type": "function"
    }
  ],
  "bytecode": "0x60806040523480156200001157600080fd5b50604051620014ef380380620014ef83398181016040528101906200003791906200036d565b83600160006101000a81548173ffffffffffffffffffffffffffffffffffffffff021916908373ffffffffffffffffffffffffffffffffffffffff16021790555082600260006101000a81548173ffffffffffffffffffffffffffffffffffffffff021916908373ffffffffffffffffffffffffffffffffffffffff16021790555081600360006101000a81548173ffffffffffffffffffffffffffffffffffffffff021916908373ffffffffffffffffffffffffffffffffffffffff16021790555080600460006101000a81548173ffffffffffffffffffffffffffffffffffffffff021916908373ffffffffffffffffffffffffffffffffffffffff160217905550620001506000801b336200018e60201b60201c565b50620001837f25cf2b509f2a7f322675b2a5322b182f44ad2c03ac941a0af17c9b178f5d5d5f336200018e60201b60201c565b5050505050620003df565b6000620001a283836200029160201b60201c565b6200028657600160008085815260200190815260200160002060000160008473ffffffffffffffffffffffffffffffffffffffff1673ffffffffffffffffffffffffffffffffffffffff16815260200190815260200160002060006101000a81548160ff02191690831515021790555062000222620002fb60201b60201c565b73ffffffffffffffffffffffffffffffffffffffff168273ffffffffffffffffffffffffffffffffffffffff16847f2f8788117e7eff1d82e926ec794901d17c78024a50270940304540a733656f0d60405160405180910390a4600190506200028b565b600090505b92915050565b600080600084815260200190815260200160002060000160008373ffffffffffffffffffffffffffffffffffffffff1673ffffffffffffffffffffffffffffffffffffffff16815260200190815260200160002060009054906101000a900460ff16905092915050565b600033905090565b600080fd5b600073ffffffffffffffffffffffffffffffffffffffff82169050919050565b6000620003358262000308565b9050919050565b620003478162000328565b81146200035357600080fd5b50565b60008151905062000367816200033c565b92915050565b600080600080608085870312156200038a576200038962000303565b5b60006200039a8782880162000356565b9450506020620003ad8782880162000356565b9350506040620003c08782880162000356565b9250506060620003d38782880162000356565b91505092959194509250565b61110080620003ef6000396000f3fe608060405234801561001057600080fd5b50600436106101005760003560e01c806391aec72a11610097578063b8c3a87111610066578063b8c3a8711461029b578063bb721aab146102b7578063d547741f146102d3578063f7c618c1146102ef57610100565b806391aec72a1461021157806391d148541461022f57806392c2becc1461025f578063a217fddf1461027d57610100565b80634348e0e9116100d35780634348e0e91461019d5780635bccebb5146101bb57806367262d8f146101d757806373c11bac146101f557610100565b806301ffc9a714610105578063248a9ca3146101355780632f2ff15d1461016557806336568abe14610181575b600080fd5b61011f600480360381019061011a9190610bb2565b61030d565b60405161012c9190610bfa565b60405180910390f35b61014f600480360381019061014a9190610c4b565b610387565b60405161015c9190610c87565b60405180910390f35b61017f600480360381019061017a9190610d00565b6103a6565b005b61019b60048036038101906101969190610d00565b6103c8565b005b6101a5610443565b6040516101b29190610d9f565b60405180910390f35b6101d560048036038101906101d09190610e1f565b610469565b005b6101df61052a565b6040516101ec9190610ea0565b60405180910390f35b61020f600480360381019061020a9190610ef1565b610550565b005b610219610611565b6040516102269190610f65565b60405180910390f35b61024960048036038101906102449190610d00565b610637565b6040516102569190610bfa565b60405180910390f35b6102676106a1565b6040516102749190610c87565b60405180910390f35b6102856106c5565b6040516102929190610c87565b60405180910390f35b6102b560048036038101906102b09190610ef1565b6106cc565b005b6102d160048036038101906102cc9190610e1f565b61078d565b005b6102ed60048036038101906102e89190610d00565b61084e565b005b6102f7610870565b6040516103049190610fa1565b60405180910390f35b60007f7965db0b000000000000000000000000000000000000000000000000000000007bffffffffffffffffffffffffffffffffffffffffffffffffffffffff1916827bffffffffffffffffffffffffffffffffffffffffffffffffffffffff19161480610380575061037f82610896565b5b9050919050565b6000806000838152602001908152602001600020600101549050919050565b6103af82610387565b6103b881610900565b6103c28383610914565b50505050565b6103d0610a05565b73ffffffffffffffffffffffffffffffffffffffff168173ffffffffffffffffffffffffffffffffffffffff1614610434576040517f6697b23200000000000000000000000000000000000000000000000000000000815260040160405180910390fd5b61043e8282610a0d565b505050565b600460009054906101000a900473ffffffffffffffffffffffffffffffffffffffff1681565b7f25cf2b509f2a7f322675b2a5322b182f44ad2c03ac941a0af17c9b178f5d5d5f61049381610900565b600460009054906101000a900473ffffffffffffffffffffffffffffffffffffffff1673ffffffffffffffffffffffffffffffffffffffff16636b2bafc88585856040518463ffffffff1660e01b81526004016104f293929190611029565b600060405180830381600087803b15801561050c57600080fd5b505af1158015610520573d6000803e3d6000fd5b5050505050505050565b600260009054906101000a900473ffffffffffffffffffffffffffffffffffffffff1681565b7f25cf2b509f2a7f322675b2a5322b182f44ad2c03ac941a0af17c9b178f5d5d5f61057a81610900565b600160009054906101000a900473ffffffffffffffffffffffffffffffffffffffff1673ffffffffffffffffffffffffffffffffffffffff16635261f3b38585856040518463ffffffff1660e01b81526004016105d99392919061106a565b600060405180830381600087803b1580156105f357600080fd5b505af1158015610607573d6000803e3d6000fd5b5050505050505050565b600360009054906101000a900473ffffffffffffffffffffffffffffffffffffffff1681565b600080600084815260200190815260200160002060000160008373ffffffffffffffffffffffffffffffffffffffff1673ffffffffffffffffffffffffffffffffffffffff16815260200190815260200160002060009054906101000a900460ff16905092915050565b7f25cf2b509f2a7f322675b2a5322b182f44ad2c03ac941a0af17c9b178f5d5d5f81565b6000801b81565b7f25cf2b509f2a7f322675b2a5322b182f44ad2c03ac941a0af17c9b178f5d5d5f6106f681610900565b600260009054906101000a900473ffffffffffffffffffffffffffffffffffffffff1673ffffffffffffffffffffffffffffffffffffffff16639bca0d2e8585856040518463ffffffff1660e01b81526004016107559392919061106a565b600060405180830381600087803b15801561076f57600080fd5b505af1158015610783573d6000803e3d6000fd5b5050505050505050565b7f25cf2b509f2a7f322675b2a5322b182f44ad2c03ac941a0af17c9b178f5d5d5f6107b781610900565b600360009054906101000a900473ffffffffffffffffffffffffffffffffffffffff1673ffffffffffffffffffffffffffffffffffffffff16630712249f8585856040518463ffffffff1660e01b815260040161081693929190611029565b600060405180830381600087803b15801561083057600080fd5b505af1158015610844573d6000803e3d6000fd5b5050505050505050565b61085782610387565b61086081610900565b61086a8383610a0d565b50505050565b600160009054906101000a900473ffffffffffffffffffffffffffffffffffffffff1681565b60007f01ffc9a7000000000000000000000000000000000000000000000000000000007bffffffffffffffffffffffffffffffffffffffffffffffffffffffff1916827bffffffffffffffffffffffffffffffffffffffffffffffffffffffff1916149050919050565b6109118161090c610a05565b610aff565b50565b60006109208383610637565b6109fa57600160008085815260200190815260200160002060000160008473ffffffffffffffffffffffffffffffffffffffff1673ffffffffffffffffffffffffffffffffffffffff16815260200190815260200160002060006101000a81548160ff021916908315150217905550610997610a05565b73ffffffffffffffffffffffffffffffffffffffff168273ffffffffffffffffffffffffffffffffffffffff16847f2f8788117e7eff1d82e926ec794901d17c78024a50270940304540a733656f0d60405160405180910390a4600190506109ff565b600090505b92915050565b600033905090565b6000610a198383610637565b15610af457600080600085815260200190815260200160002060000160008473ffffffffffffffffffffffffffffffffffffffff1673ffffffffffffffffffffffffffffffffffffffff16815260200190815260200160002060006101000a81548160ff021916908315150217905550610a91610a05565b73ffffffffffffffffffffffffffffffffffffffff168273ffffffffffffffffffffffffffffffffffffffff16847ff6391f5c32d9c69d2a47ea670b442974b53935d1edc7fd64eb21e047a839171b60405160405180910390a460019050610af9565b600090505b92915050565b610b098282610637565b610b4c5780826040517fe2517d3f000000000000000000000000000000000000000000000000000000008152600401610b439291906110a1565b60405180910390fd5b5050565b600080fd5b600080fd5b60007fffffffff0000000000000000000000000000000000000000000000000000000082169050919050565b610b8f81610b5a565b8114610b9a57600080fd5b50565b600081359050610bac81610b86565b92915050565b600060208284031215610bc857610bc7610b50565b5b6000610bd684828501610b9d565b91505092915050565b60008115159050919050565b610bf481610bdf565b82525050565b6000602082019050610c0f6000830184610beb565b92915050565b6000819050919050565b610c2881610c15565b8114610c3357600080fd5b50565b600081359050610c4581610c1f565b92915050565b600060208284031215610c6157610c60610b50565b5b6000610c6f84828501610c36565b91505092915050565b610c8181610c15565b82525050565b6000602082019050610c9c6000830184610c78565b92915050565b600073ffffffffffffffffffffffffffffffffffffffff82169050919050565b6000610ccd82610ca2565b9050919050565b610cdd81610cc2565b8114610ce857600080fd5b50565b600081359050610cfa81610cd4565b92915050565b60008060408385031215610d1757610d16610b50565b5b6000610d2585828601610c36565b9250506020610d3685828601610ceb565b9150509250929050565b6000819050919050565b6000610d65610d60610d5b84610ca2565b610d40565b610ca2565b9050919050565b6000610d7782610d4a565b9050919050565b6000610d8982610d6c565b9050919050565b610d9981610d7e565b82525050565b6000602082019050610db46000830184610d90565b92915050565b600080fd5b600080fd5b600080fd5b60008083601f840112610ddf57610dde610dba565b5b8235905067ffffffffffffffff811115610dfc57610dfb610dbf565b5b602083019150836001820283011115610e1857610e17610dc4565b5b9250929050565b600080600060408486031215610e3857610e37610b50565b5b6000610e4686828701610ceb565b935050602084013567ffffffffffffffff811115610e6757610e66610b55565b5b610e7386828701610dc9565b92509250509250925092565b6000610e8a82610d6c565b9050919050565b610e9a81610e7f565b82525050565b6000602082019050610eb56000830184610e91565b92915050565b6000819050919050565b610ece81610ebb565b8114610ed957600080fd5b50565b600081359050610eeb81610ec5565b92915050565b600080600060608486031215610f0a57610f09610b50565b5b6000610f1886828701610ceb565b9350506020610f2986828701610edc565b9250506040610f3a86828701610edc565b9150509250925092565b6000610f4f82610d6c565b9050919050565b610f5f81610f44565b82525050565b6000602082019050610f7a6000830184610f56565b92915050565b6000610f8b82610d6c565b9050919050565b610f9b81610f80565b82525050565b6000602082019050610fb66000830184610f92565b92915050565b610fc581610cc2565b82525050565b600082825260208201905092915050565b82818337600083830152505050565b6000601f19601f8301169050919050565b60006110088385610fcb565b9350611015838584610fdc565b61101e83610feb565b840190509392505050565b600060408201905061103e6000830186610fbc565b8181036020830152611051818486610ffc565b9050949350505050565b61106481610ebb565b82525050565b600060608201905061107f6000830186610fbc565b61108c602083018561105b565b611099604083018461105b565b949350505050565b60006040820190506110b66000830185610fbc565b6110c36020830184610c78565b939250505056fea264697066735822122015c7277bfb1f432b875001cfc5a87c7c61df5d279fdfc03cc2a77bc1a9e9229664736f6c63430008140033",
  "linkReferences": {},
  "deployedLinkReferences": {}
}