{
  "_format": "hh-sol-artifact-1",
  "contractName": "InternRewardToken",
  "sourceName": "contracts/InternRewardToken.sol",
  "abi": [
    {
      "inputs": [
        {
          "internalType": "uint256",
          "name": "cap",
          "type": "uint256"
        }
      ],
      "stateMutability": "nonpayable",
      "type": "constructor"
    },
    {
      "inputs": [],
      "name": "AccessControlBadConfirmation",
      "type": "error"
    },
    {
      "inputs": [
        {
          "internalType": "address",
          "name": "account",
          "type": "address"
        },
        {
          "internalType": "bytes32",
          "name": "neededRole",
          "type": "bytes32"
        }
      ],
      "name": "AccessControlUnauthorizedAccount",
      "type": "error"
    },
    {
      "inputs": [
        {
          "internalType": "uint256",
          "name": "increasedSupply",
          "type": "uint256"
        },
        {
          "internalType": "uint256",
          "name": "cap",
          "type": "uint256"
        }
      ],
      "name": "ERC20ExceededCap",
      "type": "error"
    },
    {
      "inputs": [
        {
          "internalType": "address",
          "name": "spender",
          "type": "address"
        },
        {
          "internalType": "uint256",
          "name": "allowance",
          "type": "uint256"
        },
        {
          "internalType": "uint256",
          "name": "needed",
          "type": "uint256"
        }
      ],
      "name": "ERC20InsufficientAllowance",
      "type": "error"
    },
    {
      "inputs": [
        {
          "internalType": "address",
          "name": "sender",
          "type": "address"
        },
        {
          "internalType": "uint256",
          "name": "balance",
          "type": "uint256"
        },
        {
          "internalType": "uint256",
          "name": "needed",
          "type": "uint256"
        }
      ],
      "name": "ERC20InsufficientBalance",
      "type": "error"
    },
    {
      "inputs": [
        {
          "internalType": "address",
          "name": "approver",
          "type": "address"
        }
      ],
      "name": "ERC20InvalidApprover",
      "type": "error"
    },
    {
      "inputs": [
        {
          "internalType": "uint256",
          "name": "cap",
          "type": "uint256"
        }
      ],
      "name": "ERC20InvalidCap",
      "type": "error"
    },
    {
      "inputs": [
        {
          "internalType": "address",
          "name": "receiver",
          "type": "address"
        }
      ],
      "name": "ERC20InvalidReceiver",
      "type": "error"
    },
    {
      "inputs": [
        {
          "internalType": "address",
          "name": "sender",
          "type": "address"
        }
      ],
      "name": "ERC20InvalidSender",
      "type": "error"
    },
    {
      "inputs": [
        {
          "internalType": "address",
          "name": "spender",
          "type": "address"
        }
      ],
      "name": "ERC20InvalidSpender",
      "type": "error"
    },
    {
      "anonymous": false,
      "inputs": [
        {
          "indexed": true,
          "internalType": "address",
          "name": "owner",
          "type": "address"
        },
        {
          "indexed": true,
          "internalType": "address",
          "name": "spender",
          "type": "address"
        },
        {
          "indexed": false,
          "internalType": "uint256",
          "name": "value",
          "type": "uint256"
        }
      ],
      "name": "Approval",
      "type": "event"
    },
    {
      "anonymous": false,
      "inputs": [
        {
          "indexed": true,
          "internalType": "address",
          "name": "intern",
          "type": "address"
        },
        {
          "indexed": false,
          "internalType": "uint256",
          "name": "amount",
          "type": "uint256"
        },
        {
          "indexed": true,
          "internalType": "uint256",
          "name": "reason",
          "type": "uint256"
        }
      ],
      "name": "InternRewarded",
      "type": "event"
    },
    {
      "anonymous": false,
      "inputs": [
        {
          "indexed": true,
          "internalType": "bytes32",
          "name": "role",
          "type": "bytes32"
        },
        {
          "indexed": true,
          "internalType": "bytes32",
          "name": "previousAdminRole",
          "type": "bytes32"
        },
        {
          "indexed": true,
          "internalType": "bytes32",
          "name": "newAdminRole",
          "type": "bytes32"
        }
      ],
      "name": "RoleAdminChanged",
      "type": "event"
    },
    {
      "anonymous": false,
      "inputs": [
        {
          "indexed": true,
          "internalType": "bytes32",
          "name": "role",
          "type": "bytes32"
        },
        {
          "indexed": true,
          "internalType": "address",
          "name": "account",
          "type": "address"
        },
        {
          "indexed": true,
          "internalType": "address",
          "name": "sender",
          "type": "address"
        }
      ],
      "name": "RoleGranted",
      "type": "event"
    },
    {
      "anonymous": false,
      "inputs": [
        {
          "indexed": true,
          "internalType": "bytes32",
          "name": "role",
          "type": "bytes32"
        },
        {
          "indexed": true,
          "internalType": "address",
          "name": "account",
          "type": "address"
        },
        {
          "indexed": true,
          "internalType": "address",
          "name": "sender",
          "type": "address"
        }
      ],
      "name": "RoleRevoked",
      "type": "event"
    },
    {
      "anonymous": false,
      "inputs": [
        {
          "indexed": true,
          "internalType": "address",
          "name": "from",
          "type": "address"
        },
        {
          "indexed": true,
          "internalType": "address",
          "name": "to",
          "type": "address"
        },
        {
          "indexed": false,
          "internalType": "uint256",
          "name": "value",
          "type": "uint256"
        }
      ],
      "name": "Transfer",
      "type": "event"
    },
    {
      "inputs": [],
      "name": "DEFAULT_ADMIN_ROLE",
      "outputs": [
        {
          "internalType": "bytes32",
          "name": "",
          "type": "bytes32"
        }
      ],
      "stateMutability": "view",
      "type": "function"
    },
    {
      "inputs": [],
      "name": "REWARD_MANAGER_ROLE",
      "outputs": [
        {
          "internalType": "bytes32",
          "name": "",
          "type": "bytes32"
        }
      ],
      "stateMutability": "view",
      "type": "function"
    },
    {
      "inputs": [
        {
          "internalType": "address",
          "name": "owner",
          "type": "address"
        },
        {
          "internalType": "address",
          "name": "spender",
          "type": "address"
        }
      ],
      "name": "allowance",
      "outputs": [
        {
          "internalType": "uint256",
          "name": "",
          "type": "uint256"
        }
      ],
      "stateMutability": "view",
      "type": "function"
    },
    {
      "inputs": [
        {
          "internalType": "address",
          "name": "spender",
          "type": "address"
        },
        {
          "internalType": "uint256",
          "name": "value",
          "type": "uint256"
        }
      ],
      "name": "approve",
      "outputs": [
        {
          "internalType": "bool",
          "name": "",
          "type": "bool"
        }
      ],
      "stateMutability": "nonpayable",
      "type": "function"
    },
    {
      "inputs": [
        {
          "internalType": "address",
          "name": "account",
          "type": "address"
        }
      ],
      "name": "balanceOf",
      "outputs": [
        {
          "internalType": "uint256",
          "name": "",
          "type": "uint256"
        }
      ],
      "stateMutability": "view",
      "type": "function"
    },
    {
      "inputs": [
        {
          "internalType": "address[]",
          "name": "interns",
          "type": "address[]"
        },
        {
          "internalType": "uint256[]",
          "name": "amounts",
          "type": "uint256[]"
        },
        {
          "internalType": "uint256",
          "name": "reason",
          "type": "uint256"
        }
      ],
      "name": "batchRewardInterns",
      "outputs": [],
      "stateMutability": "nonpayable",
      "type": "function"
    },
    {
      "inputs": [],
      "name": "cap",
      "outputs": [
        {
          "internalType": "uint256",
          "name": "",
          "type": "uint256"
        }
      ],
      "stateMutability": "view",
      "type": "function"
    },
    {
      "inputs": [],
      "name": "decimals",
      "outputs": [
        {
          "internalType": "uint8",
          "name": "",
          "type": "uint8"
        }
      ],
      "stateMutability": "view",
      "type": "function"
    },
    {
      "inputs": [
        {
          "internalType": "bytes32",
          "name": "role",
          "type": "bytes32"
        }
      ],
      "name": "getRoleAdmin",
      "outputs": [
        {
          "internalType": "bytes32",
          "name": "",
          "type": "bytes32"
        }
      ],
      "stateMutability": "view",
      "type": "function"
    },
    {
      "inputs": [
        {
          "internalType": "bytes32",
          "name": "role",
          "type": "bytes32"
        },
        {
          "internalType": "address",
          "name": "account",
          "type": "address"
        }
      ],
      "name": "grantRole",
      "outputs": [],
      "stateMutability": "nonpayable",
      "type": "function"
    },
    {
      "inputs": [
        {
          "internalType": "bytes32",
          "name": "role",
          "type": "bytes32"
        },
        {
          "internalType": "address",
          "name": "account",
          "type": "address"
        }
      ],
      "name": "hasRole",
      "outputs": [
        {
          "internalType": "bool",
          "name": "",
          "type": "bool"
        }
      ],
      "stateMutability": "view",
      "type": "function"
    },
    {
      "inputs": [],
      "name": "name",
      "outputs": [
        {
          "internalType": "string",
          "name": "",
          "type": "string"
        }
      ],
      "stateMutability": "view",
      "type": "function"
    },
    {
      "inputs": [
        {
          "internalType": "bytes32",
          "name": "role",
          "type": "bytes32"
        },
        {
          "internalType": "address",
          "name": "callerConfirmation",
          "type": "address"
        }
      ],
      "name": "renounceRole",
      "outputs": [],
      "stateMutability": "nonpayable",
      "type": "function"
    },
    {
      "inputs": [
        {
          "internalType": "bytes32",
          "name": "role",
          "type": "bytes32"
        },
        {
          "internalType": "address",
          "name": "account",
          "type": "address"
        }
      ],
      "name": "revokeRole",
      "outputs": [],
      "stateMutability": "nonpayable",
      "type": "function"
    },
    {
      "inputs": [
        {
          "internalType": "address",
          "name": "intern",
          "type": "address"
        },
        {
          "internalType": "uint256",
          "name": "amount",
          "type": "uint256"
        },
        {
          "internalType": "uint256",
          "name": "reason",
          "type": "uint256"
        }
      ],
      "name": "rewardIntern",
      "outputs": [],
      "stateMutability": "nonpayable",
      "type": "function"
    },
    {
      "inputs": [
        {
          "internalType": "bytes4",
          "name": "interfaceId",
          "type": "bytes4"
        }
      ],
      "name": "supportsInterface",
      "outputs": [
        {
          "internalType": "bool",
          "name": "",
          "type": "bool"
        }
      ],
      "stateMutability": "view",
      "type": "function"
    },
    {
      "inputs": [],
      "name": "symbol",
      "outputs": [
        {
          "internalType": "string",
          "name": "",
          "type": "string"
        }
      ],
      "stateMutability": "view",
      "type": "function"
    },
    {
      "inputs": [],
      "name": "totalSupply",
      "outputs": [
        {
          "internalType": "uint256",
          "name": "",
          "type": "uint256"
        }
      ],
      "stateMutability": "view",
      "type": "function"
    },
    {
      "inputs": [
        {
          "internalType": "address",
          "name": "to",
          "type": "address"
        },
        {
          "internalType": "uint256",
          "name": "value",
          "type": "uint256"
        }
      ],
      "name": "transfer",
      "outputs": [
        {
          "internalType": "bool",
          "name": "",
          "type": "bool"
        }
      ],
      "stateMutability": "nonpayable",
      "type": "function"
    },
    {
      "inputs": [
        {
          "internalType": "address",
          "name": "from",
          "type": "address"
        },
        {
          "internalType": "address",
          "name": "to",
          "type": "address"
        },
        {
          "internalType": "uint256",
          "name": "value",
          "type": "uint256"
        }
      ],
      "name": "transferFrom",
      "outputs": [
        {
          "internalType": "bool",
          "name": "",
          "type": "bool"
        }
      ],
      "stateMutability": "nonpayable",
      "type": "function"
    }
  ],
  "bytecode": "0x60a06040523480156200001157600080fd5b506040516200267238038062002672833981810160405281019062000037919062000323565b806040518060400160405280601181526020017f496e7465726e526577617264546f6b656e0000000000000000000000000000008152506040518060400160405280600381526020017f49525400000000000000000000000000000000000000000000000000000000008152508160039081620000b59190620005c5565b508060049081620000c79190620005c5565b50505060008103620001135760006040517f392e1e270000000000000000000000000000000000000000000000000000000081526004016200010a9190620006ef565b60405180910390fd5b806080818152505050620001316000801b336200016c60201b60201c565b50620001647f0f51adb3f49e4a9bbb17b3783f025995eaf8c24be2c8eefff214bdfda05ef94d336200016c60201b60201c565b50506200070c565b60006200018083836200027060201b60201c565b620002655760016005600085815260200190815260200160002060000160008473ffffffffffffffffffffffffffffffffffffffff1673ffffffffffffffffffffffffffffffffffffffff16815260200190815260200160002060006101000a81548160ff02191690831515021790555062000201620002db60201b60201c565b73ffffffffffffffffffffffffffffffffffffffff168273ffffffffffffffffffffffffffffffffffffffff16847f2f8788117e7eff1d82e926ec794901d17c78024a50270940304540a733656f0d60405160405180910390a4600190506200026a565b600090505b92915050565b60006005600084815260200190815260200160002060000160008373ffffffffffffffffffffffffffffffffffffffff1673ffffffffffffffffffffffffffffffffffffffff16815260200190815260200160002060009054906101000a900460ff16905092915050565b600033905090565b600080fd5b6000819050919050565b620002fd81620002e8565b81146200030957600080fd5b50565b6000815190506200031d81620002f2565b92915050565b6000602082840312156200033c576200033b620002e3565b5b60006200034c848285016200030c565b91505092915050565b600081519050919050565b7f4e487b7100000000000000000000000000000000000000000000000000000000600052604160045260246000fd5b7f4e487b7100000000000000000000000000000000000000000000000000000000600052602260045260246000fd5b60006002820490506001821680620003d757607f821691505b602082108103620003ed57620003ec6200038f565b5b50919050565b60008190508160005260206000209050919050565b60006020601f8301049050919050565b600082821b905092915050565b600060088302620004577fffffffffffffffffffffffffffffffffffffffffffffffffffffffffffffffff8262000418565b62000463868362000418565b95508019841693508086168417925050509392505050565b6000819050919050565b6000620004a6620004a06200049a84620002e8565b6200047b565b620002e8565b9050919050565b6000819050919050565b620004c28362000485565b620004da620004d182620004ad565b84845462000425565b825550505050565b600090565b620004f1620004e2565b620004fe818484620004b7565b505050565b5b8181101562000526576200051a600082620004e7565b60018101905062000504565b5050565b601f82111562000575576200053f81620003f3565b6200054a8462000408565b810160208510156200055a578190505b62000572620005698562000408565b83018262000503565b50505b505050565b600082821c905092915050565b60006200059a600019846008026200057a565b1980831691505092915050565b6000620005b5838362000587565b9150826002028217905092915050565b620005d08262000355565b67ffffffffffffffff811115620005ec57620005eb62000360565b5b620005f88254620003be565b620006058282856200052a565b600060209050601f8311600181146200063d576000841562000628578287015190505b620006348582620005a7565b865550620006a4565b601f1984166200064d86620003f3565b60005b82811015620006775784890151825560018201915060208501945060208101905062000650565b8683101562000697578489015162000693601f89168262000587565b8355505b6001600288020188555050505b505050505050565b6000819050919050565b6000620006d7620006d1620006cb84620006ac565b6200047b565b620002e8565b9050919050565b620006e981620006b6565b82525050565b6000602082019050620007066000830184620006de565b92915050565b608051611f4a6200072860003960006105c60152611f4a6000f3fe608060405234801561001057600080fd5b506004361061012c5760003560e01c80635261f3b3116100ad578063a217fddf11610071578063a217fddf14610359578063a4f2f91c14610377578063a9059cbb14610393578063d547741f146103c3578063dd62ed3e146103df5761012c565b80635261f3b3146102a15780636d750d80146102bd57806370a08231146102db57806391d148541461030b57806395d89b411461033b5761012c565b8063248a9ca3116100f4578063248a9ca3146101fd5780632f2ff15d1461022d578063313ce56714610249578063355274ea1461026757806336568abe146102855761012c565b806301ffc9a71461013157806306fdde0314610161578063095ea7b31461017f57806318160ddd146101af57806323b872dd146101cd575b600080fd5b61014b60048036038101906101469190611515565b61040f565b604051610158919061155d565b60405180910390f35b610169610489565b6040516101769190611608565b60405180910390f35b610199600480360381019061019491906116be565b61051b565b6040516101a6919061155d565b60405180910390f35b6101b761053e565b6040516101c4919061170d565b60405180910390f35b6101e760048036038101906101e29190611728565b610548565b6040516101f4919061155d565b60405180910390f35b610217600480360381019061021291906117b1565b610577565b60405161022491906117ed565b60405180910390f35b61024760048036038101906102429190611808565b610597565b005b6102516105b9565b60405161025e9190611864565b60405180910390f35b61026f6105c2565b60405161027c919061170d565b60405180910390f35b61029f600480360381019061029a9190611808565b6105ea565b005b6102bb60048036038101906102b6919061187f565b610665565b005b6102c5610712565b6040516102d291906117ed565b60405180910390f35b6102f560048036038101906102f091906118d2565b610736565b604051610302919061170d565b60405180910390f35b61032560048036038101906103209190611808565b61077e565b604051610332919061155d565b60405180910390f35b6103436107e9565b6040516103509190611608565b60405180910390f35b61036161087b565b60405161036e91906117ed565b60405180910390f35b610391600480360381019061038c91906119ba565b610882565b005b6103ad60048036038101906103a891906116be565b610a02565b6040516103ba919061155d565b60405180910390f35b6103dd60048036038101906103d89190611808565b610a25565b005b6103f960048036038101906103f49190611a4f565b610a47565b604051610406919061170d565b60405180910390f35b60007f7965db0b000000000000000000000000000000000000000000000000000000007bffffffffffffffffffffffffffffffffffffffffffffffffffffffff1916827bffffffffffffffffffffffffffffffffffffffffffffffffffffffff19161480610482575061048182610ace565b5b9050919050565b60606003805461049890611abe565b80601f01602080910402602001604051908101604052809291908181526020018280546104c490611abe565b80156105115780601f106104e657610100808354040283529160200191610511565b820191906000526020600020905b8154815290600101906020018083116104f457829003601f168201915b5050505050905090565b600080610526610b38565b9050610533818585610b40565b600191505092915050565b6000600254905090565b600080610553610b38565b9050610560858285610b52565b61056b858585610be7565b60019150509392505050565b600060056000838152602001908152602001600020600101549050919050565b6105a082610577565b6105a981610cdb565b6105b38383610cef565b50505050565b60006012905090565b60007f0000000000000000000000000000000000000000000000000000000000000000905090565b6105f2610b38565b73ffffffffffffffffffffffffffffffffffffffff168173ffffffffffffffffffffffffffffffffffffffff1614610656576040517f6697b23200000000000000000000000000000000000000000000000000000000815260040160405180910390fd5b6106608282610de1565b505050565b7f0f51adb3f49e4a9bbb17b3783f025995eaf8c24be2c8eefff214bdfda05ef94d61068f81610cdb565b60006106996105b9565b600a6106a59190611c51565b846106b09190611c9c565b90506106bc8582610ed4565b828573ffffffffffffffffffffffffffffffffffffffff167fb2a449a88c4aff90c53ebc4ea542e4fbae37833749f9af93f7664c1499be979783604051610703919061170d565b60405180910390a35050505050565b7f0f51adb3f49e4a9bbb17b3783f025995eaf8c24be2c8eefff214bdfda05ef94d81565b60008060008373ffffffffffffffffffffffffffffffffffffffff1673ffffffffffffffffffffffffffffffffffffffff168152602001908152602001600020549050919050565b60006005600084815260200190815260200160002060000160008373ffffffffffffffffffffffffffffffffffffffff1673ffffffffffffffffffffffffffffffffffffffff16815260200190815260200160002060009054906101000a900460ff16905092915050565b6060600480546107f890611abe565b80601f016020809104026020016040519081016040528092919081815260200182805461082490611abe565b80156108715780601f1061084657610100808354040283529160200191610871565b820191906000526020600020905b81548152906001019060200180831161085457829003601f168201915b5050505050905090565b6000801b81565b7f0f51adb3f49e4a9bbb17b3783f025995eaf8c24be2c8eefff214bdfda05ef94d6108ac81610cdb565b8383905086869050146108f4576040517f08c379a00000000000000000000000000000000000000000000000000000000081526004016108eb90611d2a565b60405180910390fd5b60005b868690508110156109f957600061090c6105b9565b600a6109189190611c51565b86868481811061092b5761092a611d4a565b5b9050602002013561093c9190611c9c565b905061096f88888481811061095457610953611d4a565b5b905060200201602081019061096991906118d2565b82610ed4565b8388888481811061098357610982611d4a565b5b905060200201602081019061099891906118d2565b73ffffffffffffffffffffffffffffffffffffffff167fb2a449a88c4aff90c53ebc4ea542e4fbae37833749f9af93f7664c1499be9797836040516109dd919061170d565b60405180910390a35080806109f190611d79565b9150506108f7565b50505050505050565b600080610a0d610b38565b9050610a1a818585610be7565b600191505092915050565b610a2e82610577565b610a3781610cdb565b610a418383610de1565b50505050565b6000600160008473ffffffffffffffffffffffffffffffffffffffff1673ffffffffffffffffffffffffffffffffffffffff16815260200190815260200160002060008373ffffffffffffffffffffffffffffffffffffffff1673ffffffffffffffffffffffffffffffffffffffff16815260200190815260200160002054905092915050565b60007f01ffc9a7000000000000000000000000000000000000000000000000000000007bffffffffffffffffffffffffffffffffffffffffffffffffffffffff1916827bffffffffffffffffffffffffffffffffffffffffffffffffffffffff1916149050919050565b600033905090565b610b4d8383836001610f3e565b505050565b6000610b5e8484610a47565b90507fffffffffffffffffffffffffffffffffffffffffffffffffffffffffffffffff811015610be15781811015610bd1578281836040517ffb8f41b2000000000000000000000000000000000000000000000000000000008152600401610bc893929190611dd0565b60405180910390fd5b610be084848484036000610f3e565b5b50505050565b600073ffffffffffffffffffffffffffffffffffffffff168373ffffffffffffffffffffffffffffffffffffffff1603610c595760006040517f96c6fd1e000000000000000000000000000000000000000000000000000000008152600401610c509190611e07565b60405180910390fd5b600073ffffffffffffffffffffffffffffffffffffffff168273ffffffffffffffffffffffffffffffffffffffff1603610ccb5760006040517fec442f05000000000000000000000000000000000000000000000000000000008152600401610cc29190611e07565b60405180910390fd5b610cd6838383611115565b505050565b610cec81610ce7610b38565b6111bb565b50565b6000610cfb838361077e565b610dd65760016005600085815260200190815260200160002060000160008473ffffffffffffffffffffffffffffffffffffffff1673ffffffffffffffffffffffffffffffffffffffff16815260200190815260200160002060006101000a81548160ff021916908315150217905550610d73610b38565b73ffffffffffffffffffffffffffffffffffffffff168273ffffffffffffffffffffffffffffffffffffffff16847f2f8788117e7eff1d82e926ec794901d17c78024a50270940304540a733656f0d60405160405180910390a460019050610ddb565b600090505b92915050565b6000610ded838361077e565b15610ec95760006005600085815260200190815260200160002060000160008473ffffffffffffffffffffffffffffffffffffffff1673ffffffffffffffffffffffffffffffffffffffff16815260200190815260200160002060006101000a81548160ff021916908315150217905550610e66610b38565b73ffffffffffffffffffffffffffffffffffffffff168273ffffffffffffffffffffffffffffffffffffffff16847ff6391f5c32d9c69d2a47ea670b442974b53935d1edc7fd64eb21e047a839171b60405160405180910390a460019050610ece565b600090505b92915050565b610edc6105c2565b81610ee561053e565b610eef9190611e22565b1115610f30576040517f08c379a0000000000000000000000000000000000000000000000000000000008152600401610f2790611ea2565b60405180910390fd5b610f3a828261120c565b5050565b600073ffffffffffffffffffffffffffffffffffffffff168473ffffffffffffffffffffffffffffffffffffffff1603610fb05760006040517fe602df05000000000000000000000000000000000000000000000000000000008152600401610fa79190611e07565b60405180910390fd5b600073ffffffffffffffffffffffffffffffffffffffff168373ffffffffffffffffffffffffffffffffffffffff16036110225760006040517f94280d620000000000000000000000000000000000000000000000000000000081526004016110199190611e07565b60405180910390fd5b81600160008673ffffffffffffffffffffffffffffffffffffffff1673ffffffffffffffffffffffffffffffffffffffff16815260200190815260200160002060008573ffffffffffffffffffffffffffffffffffffffff1673ffffffffffffffffffffffffffffffffffffffff16815260200190815260200160002081905550801561110f578273ffffffffffffffffffffffffffffffffffffffff168473ffffffffffffffffffffffffffffffffffffffff167f8c5be1e5ebec7d5bd14f71427d1e84f3dd0314c0f7b2291e5b200ac8c7c3b92584604051611106919061170d565b60405180910390a35b50505050565b61112083838361128e565b600073ffffffffffffffffffffffffffffffffffffffff168373ffffffffffffffffffffffffffffffffffffffff16036111b657600061115e6105c2565b9050600061116a61053e565b9050818111156111b35780826040517f9e79f8540000000000000000000000000000000000000000000000000000000081526004016111aa929190611ec2565b60405180910390fd5b50505b505050565b6111c5828261077e565b6112085780826040517fe2517d3f0000000000000000000000000000000000000000000000000000000081526004016111ff929190611eeb565b60405180910390fd5b5050565b600073ffffffffffffffffffffffffffffffffffffffff168273ffffffffffffffffffffffffffffffffffffffff160361127e5760006040517fec442f050000000000000000000000000000000000000000000000000000000081526004016112759190611e07565b60405180910390fd5b61128a60008383611115565b5050565b600073ffffffffffffffffffffffffffffffffffffffff168373ffffffffffffffffffffffffffffffffffffffff16036112e05780600260008282546112d49190611e22565b925050819055506113b3565b60008060008573ffffffffffffffffffffffffffffffffffffffff1673ffffffffffffffffffffffffffffffffffffffff1681526020019081526020016000205490508181101561136c578381836040517fe450d38c00000000000000000000000000000000000000000000000000000000815260040161136393929190611dd0565b60405180910390fd5b8181036000808673ffffffffffffffffffffffffffffffffffffffff1673ffffffffffffffffffffffffffffffffffffffff16815260200190815260200160002081905550505b600073ffffffffffffffffffffffffffffffffffffffff168273ffffffffffffffffffffffffffffffffffffffff16036113fc5780600260008282540392505081905550611449565b806000808473ffffffffffffffffffffffffffffffffffffffff1673ffffffffffffffffffffffffffffffffffffffff168152602001908152602001600020600082825401925050819055505b8173ffffffffffffffffffffffffffffffffffffffff168373ffffffffffffffffffffffffffffffffffffffff167fddf252ad1be2c89b69c2b068fc378daa952ba7f163c4a11628f55a4df523b3ef836040516114a6919061170d565b60405180910390a3505050565b600080fd5b600080fd5b60007fffffffff0000000000000000000000000000000000000000000000000000000082169050919050565b6114f2816114bd565b81146114fd57600080fd5b50565b60008135905061150f816114e9565b92915050565b60006020828403121561152b5761152a6114b3565b5b600061153984828501611500565b91505092915050565b60008115159050919050565b61155781611542565b82525050565b6000602082019050611572600083018461154e565b92915050565b600081519050919050565b600082825260208201905092915050565b60005b838110156115b2578082015181840152602081019050611597565b60008484015250505050565b6000601f19601f8301169050919050565b60006115da82611578565b6115e48185611583565b93506115f4818560208601611594565b6115fd816115be565b840191505092915050565b6000602082019050818103600083015261162281846115cf565b905092915050565b600073ffffffffffffffffffffffffffffffffffffffff82169050919050565b60006116558261162a565b9050919050565b6116658161164a565b811461167057600080fd5b50565b6000813590506116828161165c565b92915050565b6000819050919050565b61169b81611688565b81146116a657600080fd5b50565b6000813590506116b881611692565b92915050565b600080604083850312156116d5576116d46114b3565b5b60006116e385828601611673565b92505060206116f4858286016116a9565b9150509250929050565b61170781611688565b82525050565b600060208201905061172260008301846116fe565b92915050565b600080600060608486031215611741576117406114b3565b5b600061174f86828701611673565b935050602061176086828701611673565b9250506040611771868287016116a9565b9150509250925092565b6000819050919050565b61178e8161177b565b811461179957600080fd5b50565b6000813590506117ab81611785565b92915050565b6000602082840312156117c7576117c66114b3565b5b60006117d58482850161179c565b91505092915050565b6117e78161177b565b82525050565b600060208201905061180260008301846117de565b92915050565b6000806040838503121561181f5761181e6114b3565b5b600061182d8582860161179c565b925050602061183e85828601611673565b9150509250929050565b600060ff82169050919050565b61185e81611848565b82525050565b60006020820190506118796000830184611855565b92915050565b600080600060608486031215611898576118976114b3565b5b60006118a686828701611673565b93505060206118b7868287016116a9565b92505060406118c8868287016116a9565b9150509250925092565b6000602082840312156118e8576118e76114b3565b5b60006118f684828501611673565b91505092915050565b600080fd5b600080fd5b600080fd5b60008083601f840112611924576119236118ff565b5b8235905067ffffffffffffffff81111561194157611940611904565b5b60208301915083602082028301111561195d5761195c611909565b5b9250929050565b60008083601f84011261197a576119796118ff565b5b8235905067ffffffffffffffff81111561199757611996611904565b5b6020830191508360208202830111156119b3576119b2611909565b5b9250929050565b6000806000806000606086880312156119d6576119d56114b3565b5b600086013567ffffffffffffffff8111156119f4576119f36114b8565b5b611a008882890161190e565b9550955050602086013567ffffffffffffffff811115611a2357611a226114b8565b5b611a2f88828901611964565b93509350506040611a42888289016116a9565b9150509295509295909350565b60008060408385031215611a6657611a656114b3565b5b6000611a7485828601611673565b9250506020611a8585828601611673565b9150509250929050565b7f4e487b7100000000000000000000000000000000000000000000000000000000600052602260045260246000fd5b60006002820490506001821680611ad657607f821691505b602082108103611ae957611ae8611a8f565b5b50919050565b7f4e487b7100000000000000000000000000000000000000000000000000000000600052601160045260246000fd5b60008160011c9050919050565b6000808291508390505b6001851115611b7557808604811115611b5157611b50611aef565b5b6001851615611b605780820291505b8081029050611b6e85611b1e565b9450611b35565b94509492505050565b600082611b8e5760019050611c4a565b81611b9c5760009050611c4a565b8160018114611bb25760028114611bbc57611beb565b6001915050611c4a565b60ff841115611bce57611bcd611aef565b5b8360020a915084821115611be557611be4611aef565b5b50611c4a565b5060208310610133831016604e8410600b8410161715611c205782820a905083811115611c1b57611c1a611aef565b5b611c4a565b611c2d8484846001611b2b565b92509050818404811115611c4457611c43611aef565b5b81810290505b9392505050565b6000611c5c82611688565b9150611c6783611848565b9250611c947fffffffffffffffffffffffffffffffffffffffffffffffffffffffffffffffff8484611b7e565b905092915050565b6000611ca782611688565b9150611cb283611688565b9250828202611cc081611688565b91508282048414831517611cd757611cd6611aef565b5b5092915050565b7f6c656e677468206d69736d617463680000000000000000000000000000000000600082015250565b6000611d14600f83611583565b9150611d1f82611cde565b602082019050919050565b60006020820190508181036000830152611d4381611d07565b9050919050565b7f4e487b7100000000000000000000000000000000000000000000000000000000600052603260045260246000fd5b6000611d8482611688565b91507fffffffffffffffffffffffffffffffffffffffffffffffffffffffffffffffff8203611db657611db5611aef565b5b600182019050919050565b611dca8161164a565b82525050565b6000606082019050611de56000830186611dc1565b611df260208301856116fe565b611dff60408301846116fe565b949350505050565b6000602082019050611e1c6000830184611dc1565b92915050565b6000611e2d82611688565b9150611e3883611688565b9250828201905080821115611e5057611e4f611aef565b5b92915050565b7f6361702065786365656465640000000000000000000000000000000000000000600082015250565b6000611e8c600c83611583565b9150611e9782611e56565b602082019050919050565b60006020820190508181036000830152611ebb81611e7f565b9050919050565b6000604082019050611ed760008301856116fe565b611ee460208301846116fe565b9392505050565b6000604082019050611f006000830185611dc1565b611f0d60208301846117de565b939250505056fea264697066735822122078a8e394b489cf34ba097e92f91b66ed34378197b1f92a86b0f2f8637d35508264736f6c63430008140033",
  "linkReferences": {},
  "deployedLinkReferences": {}
}